{
  "contractName": "Auction",
  "abi": [
    {
      "inputs": [],
      "stateMutability": "nonpayable",
      "type": "constructor"
    },
    {
      "anonymous": false,
      "inputs": [
        {
          "indexed": true,
          "internalType": "address",
          "name": "owner",
          "type": "address"
        },
        {
          "indexed": true,
          "internalType": "address",
          "name": "approved",
          "type": "address"
        },
        {
          "indexed": true,
          "internalType": "uint256",
          "name": "tokenId",
          "type": "uint256"
        }
      ],
      "name": "Approval",
      "type": "event"
    },
    {
      "anonymous": false,
      "inputs": [
        {
          "indexed": true,
          "internalType": "address",
          "name": "owner",
          "type": "address"
        },
        {
          "indexed": true,
          "internalType": "address",
          "name": "operator",
          "type": "address"
        },
        {
          "indexed": false,
          "internalType": "bool",
          "name": "approved",
          "type": "bool"
        }
      ],
      "name": "ApprovalForAll",
      "type": "event"
    },
    {
      "anonymous": false,
      "inputs": [
        {
          "indexed": true,
          "internalType": "address",
          "name": "from",
          "type": "address"
        },
        {
          "indexed": true,
          "internalType": "address",
          "name": "to",
          "type": "address"
        },
        {
          "indexed": true,
          "internalType": "uint256",
          "name": "tokenId",
          "type": "uint256"
        }
      ],
      "name": "Transfer",
      "type": "event"
    },
    {
      "inputs": [
        {
          "internalType": "uint256",
          "name": "",
          "type": "uint256"
        }
      ],
      "name": "AuctionsOfNFT",
      "outputs": [
        {
          "internalType": "uint256",
          "name": "minBid",
          "type": "uint256"
        },
        {
          "internalType": "address payable",
          "name": "highestBidder",
          "type": "address"
        },
        {
          "internalType": "uint256",
          "name": "highestBid",
          "type": "uint256"
        },
        {
          "internalType": "uint256",
          "name": "endTime",
          "type": "uint256"
        },
        {
          "internalType": "bool",
          "name": "ended",
          "type": "bool"
        },
        {
          "internalType": "bool",
          "name": "claimed",
          "type": "bool"
        }
      ],
      "stateMutability": "view",
      "type": "function"
    },
    {
      "inputs": [],
      "name": "NFTCounter",
      "outputs": [
        {
          "internalType": "uint256",
          "name": "",
          "type": "uint256"
        }
      ],
      "stateMutability": "view",
      "type": "function"
    },
    {
      "inputs": [
        {
          "internalType": "uint256",
          "name": "",
          "type": "uint256"
        }
      ],
      "name": "allNFTs",
      "outputs": [
        {
          "internalType": "uint256",
          "name": "tokenID",
          "type": "uint256"
        },
        {
          "internalType": "string",
          "name": "tokenName",
          "type": "string"
        },
        {
          "internalType": "address payable",
          "name": "mintedBy",
          "type": "address"
        },
        {
          "internalType": "address payable",
          "name": "currentOwner",
          "type": "address"
        },
        {
          "internalType": "address payable",
          "name": "previousOwner",
          "type": "address"
        },
        {
          "internalType": "uint256",
          "name": "price",
          "type": "uint256"
        },
        {
          "internalType": "uint256",
          "name": "transNum",
          "type": "uint256"
        },
        {
          "internalType": "bool",
          "name": "onSale",
          "type": "bool"
        }
      ],
      "stateMutability": "view",
      "type": "function"
    },
    {
      "inputs": [
        {
          "internalType": "address",
          "name": "to",
          "type": "address"
        },
        {
          "internalType": "uint256",
          "name": "tokenId",
          "type": "uint256"
        }
      ],
      "name": "approve",
      "outputs": [],
      "stateMutability": "nonpayable",
      "type": "function"
    },
    {
      "inputs": [
        {
          "internalType": "address",
          "name": "",
          "type": "address"
        },
        {
          "internalType": "uint256",
          "name": "",
          "type": "uint256"
        }
      ],
      "name": "attendAuctions",
      "outputs": [
        {
          "internalType": "uint256",
          "name": "",
          "type": "uint256"
        }
      ],
      "stateMutability": "view",
      "type": "function"
    },
    {
      "inputs": [
        {
          "internalType": "address",
          "name": "",
          "type": "address"
        }
      ],
      "name": "attendAuctionsNum",
      "outputs": [
        {
          "internalType": "uint256",
          "name": "",
          "type": "uint256"
        }
      ],
      "stateMutability": "view",
      "type": "function"
    },
    {
      "inputs": [
        {
          "internalType": "address",
          "name": "owner",
          "type": "address"
        }
      ],
      "name": "balanceOf",
      "outputs": [
        {
          "internalType": "uint256",
          "name": "",
          "type": "uint256"
        }
      ],
      "stateMutability": "view",
      "type": "function"
    },
    {
      "inputs": [],
      "name": "collectionName",
      "outputs": [
        {
          "internalType": "string",
          "name": "",
          "type": "string"
        }
      ],
      "stateMutability": "view",
      "type": "function"
    },
    {
      "inputs": [],
      "name": "collectionNameSymbol",
      "outputs": [
        {
          "internalType": "string",
          "name": "",
          "type": "string"
        }
      ],
      "stateMutability": "view",
      "type": "function"
    },
    {
      "inputs": [
        {
          "internalType": "uint256",
          "name": "",
          "type": "uint256"
        },
        {
          "internalType": "address",
          "name": "",
          "type": "address"
        }
      ],
      "name": "fundsByBidder",
      "outputs": [
        {
          "internalType": "uint256",
          "name": "",
          "type": "uint256"
        }
      ],
      "stateMutability": "view",
      "type": "function"
    },
    {
      "inputs": [
        {
          "internalType": "uint256",
          "name": "tokenId",
          "type": "uint256"
        }
      ],
      "name": "getApproved",
      "outputs": [
        {
          "internalType": "address",
          "name": "",
          "type": "address"
        }
      ],
      "stateMutability": "view",
      "type": "function"
    },
    {
      "inputs": [
        {
          "internalType": "address",
          "name": "owner",
          "type": "address"
        },
        {
          "internalType": "address",
          "name": "operator",
          "type": "address"
        }
      ],
      "name": "isApprovedForAll",
      "outputs": [
        {
          "internalType": "bool",
          "name": "",
          "type": "bool"
        }
      ],
      "stateMutability": "view",
      "type": "function"
    },
    {
      "inputs": [],
      "name": "name",
      "outputs": [
        {
          "internalType": "string",
          "name": "",
          "type": "string"
        }
      ],
      "stateMutability": "view",
      "type": "function"
    },
    {
      "inputs": [
        {
          "internalType": "uint256",
          "name": "tokenId",
          "type": "uint256"
        }
      ],
      "name": "ownerOf",
      "outputs": [
        {
          "internalType": "address",
          "name": "",
          "type": "address"
        }
      ],
      "stateMutability": "view",
      "type": "function"
    },
    {
      "inputs": [
        {
          "internalType": "address",
          "name": "from",
          "type": "address"
        },
        {
          "internalType": "address",
          "name": "to",
          "type": "address"
        },
        {
          "internalType": "uint256",
          "name": "tokenId",
          "type": "uint256"
        }
      ],
      "name": "safeTransferFrom",
      "outputs": [],
      "stateMutability": "nonpayable",
      "type": "function"
    },
    {
      "inputs": [
        {
          "internalType": "address",
          "name": "from",
          "type": "address"
        },
        {
          "internalType": "address",
          "name": "to",
          "type": "address"
        },
        {
          "internalType": "uint256",
          "name": "tokenId",
          "type": "uint256"
        },
        {
          "internalType": "bytes",
          "name": "_data",
          "type": "bytes"
        }
      ],
      "name": "safeTransferFrom",
      "outputs": [],
      "stateMutability": "nonpayable",
      "type": "function"
    },
    {
      "inputs": [
        {
          "internalType": "address",
          "name": "operator",
          "type": "address"
        },
        {
          "internalType": "bool",
          "name": "approved",
          "type": "bool"
        }
      ],
      "name": "setApprovalForAll",
      "outputs": [],
      "stateMutability": "nonpayable",
      "type": "function"
    },
    {
      "inputs": [
        {
          "internalType": "bytes4",
          "name": "interfaceId",
          "type": "bytes4"
        }
      ],
      "name": "supportsInterface",
      "outputs": [
        {
          "internalType": "bool",
          "name": "",
          "type": "bool"
        }
      ],
      "stateMutability": "view",
      "type": "function"
    },
    {
      "inputs": [],
      "name": "symbol",
      "outputs": [
        {
          "internalType": "string",
          "name": "",
          "type": "string"
        }
      ],
      "stateMutability": "view",
      "type": "function"
    },
    {
      "inputs": [
        {
          "internalType": "string",
          "name": "",
          "type": "string"
        }
      ],
      "name": "tokenNameExists",
      "outputs": [
        {
          "internalType": "bool",
          "name": "",
          "type": "bool"
        }
      ],
      "stateMutability": "view",
      "type": "function"
    },
    {
      "inputs": [
        {
          "internalType": "uint256",
          "name": "tokenId",
          "type": "uint256"
        }
      ],
      "name": "tokenURI",
      "outputs": [
        {
          "internalType": "string",
          "name": "",
          "type": "string"
        }
      ],
      "stateMutability": "view",
      "type": "function"
    },
    {
      "inputs": [
        {
          "internalType": "address",
          "name": "from",
          "type": "address"
        },
        {
          "internalType": "address",
          "name": "to",
          "type": "address"
        },
        {
          "internalType": "uint256",
          "name": "tokenId",
          "type": "uint256"
        }
      ],
      "name": "transferFrom",
      "outputs": [],
      "stateMutability": "nonpayable",
      "type": "function"
    },
    {
      "inputs": [],
      "name": "getTime",
      "outputs": [
        {
          "internalType": "uint256",
          "name": "",
          "type": "uint256"
        }
      ],
      "stateMutability": "view",
      "type": "function"
    },
    {
      "inputs": [
        {
          "internalType": "string",
          "name": "_name",
          "type": "string"
        },
        {
          "internalType": "uint256",
          "name": "_price",
          "type": "uint256"
        }
      ],
      "name": "mintNFT",
      "outputs": [],
      "stateMutability": "nonpayable",
      "type": "function"
    },
    {
      "inputs": [
        {
          "internalType": "uint256",
          "name": "_tokenID",
          "type": "uint256"
        }
      ],
      "name": "getTokenOwner",
      "outputs": [
        {
          "internalType": "address",
          "name": "",
          "type": "address"
        }
      ],
      "stateMutability": "view",
      "type": "function"
    },
    {
      "inputs": [
        {
          "internalType": "address",
          "name": "_owner",
          "type": "address"
        }
      ],
      "name": "getTotalNumberOfTokensOwnedByAnAddress",
      "outputs": [
        {
          "internalType": "uint256",
          "name": "",
          "type": "uint256"
        }
      ],
      "stateMutability": "view",
      "type": "function"
    },
    {
      "inputs": [
        {
          "internalType": "uint256",
          "name": "_tokenID",
          "type": "uint256"
        },
        {
          "internalType": "uint256",
          "name": "_minBid",
          "type": "uint256"
        },
        {
          "internalType": "uint256",
          "name": "_duration",
          "type": "uint256"
        }
      ],
      "name": "beginAuction",
      "outputs": [
        {
          "internalType": "bool",
          "name": "success",
          "type": "bool"
        }
      ],
      "stateMutability": "nonpayable",
      "type": "function"
    },
    {
      "inputs": [
        {
          "internalType": "uint256",
          "name": "_tokenID",
          "type": "uint256"
        },
        {
          "internalType": "uint256",
          "name": "newBid",
          "type": "uint256"
        }
      ],
      "name": "increaseBid",
      "outputs": [
        {
          "internalType": "bool",
          "name": "success",
          "type": "bool"
        }
      ],
      "stateMutability": "nonpayable",
      "type": "function"
    },
    {
      "inputs": [
        {
          "internalType": "uint256",
          "name": "_tokenID",
          "type": "uint256"
        }
      ],
      "name": "endAuction",
      "outputs": [
        {
          "internalType": "bool",
          "name": "success",
          "type": "bool"
        }
      ],
      "stateMutability": "nonpayable",
      "type": "function"
    },
    {
      "inputs": [
        {
          "internalType": "uint256",
          "name": "_tokenID",
          "type": "uint256"
        }
      ],
      "name": "claimNFT",
      "outputs": [
        {
          "internalType": "bool",
          "name": "success",
          "type": "bool"
        }
      ],
      "stateMutability": "payable",
      "type": "function"
    }
  ],
  "bytecode": "0x60806040523480156200001157600080fd5b506040518060400160405280600e81526020017f4e465420436f6c6c656374696f6e0000000000000000000000000000000000008152506040518060400160405280600381526020017f4e465400000000000000000000000000000000000000000000000000000000008152508160009080519060200190620000969291906200023c565b508060019080519060200190620000af9291906200023c565b505050620000c26200010860201b60201c565b60079080519060200190620000d99291906200023c565b50620000ea620001a260201b60201c565b60089080519060200190620001019291906200023c565b5062000351565b60606000805462000119906200031b565b80601f016020809104026020016040519081016040528092919081815260200182805462000147906200031b565b8015620001985780601f106200016c5761010080835404028352916020019162000198565b820191906000526020600020905b8154815290600101906020018083116200017a57829003601f168201915b5050505050905090565b606060018054620001b3906200031b565b80601f0160208091040260200160405190810160405280929190818152602001828054620001e1906200031b565b8015620002325780601f10620002065761010080835404028352916020019162000232565b820191906000526020600020905b8154815290600101906020018083116200021457829003601f168201915b5050505050905090565b8280546200024a906200031b565b90600052602060002090601f0160209004810192826200026e5760008555620002ba565b82601f106200028957805160ff1916838001178555620002ba565b82800160010185558215620002ba579182015b82811115620002b95782518255916020019190600101906200029c565b5b509050620002c99190620002cd565b5090565b5b80821115620002e8576000816000905550600101620002ce565b5090565b7f4e487b7100000000000000000000000000000000000000000000000000000000600052602260045260246000fd5b600060028204905060018216806200033457607f821691505b602082108114156200034b576200034a620002ec565b5b50919050565b61518b80620003616000396000f3fe6080604052600436106101cd5760003560e01c806370a08231116100f7578063b88d4fde11610095578063c87b56dd11610064578063c87b56dd1461073e578063e5326ab11461077b578063e985e9c5146107a6578063fe5c873a146107e3576101cd565b8063b88d4fde14610652578063b9a2de3a1461067b578063bf162d67146106b8578063c21b7494146106fc576101cd565b80639bd2a574116100d15780639bd2a57414610572578063a22cb465146105af578063a46b1fac146105d8578063a5cd761f14610615576101cd565b806370a08231146104cd5780638570a8171461050a57806395d89b4114610547576101cd565b806326fe30651161016f578063557ed1ba1161013e578063557ed1ba146104115780635afa3a721461043c5780636352211e146104655780636f9507f9146104a2576101cd565b806326fe30651461034357806342842e0e1461038057806343902850146103a95780635508d8e1146103e6576101cd565b8063095ea7b3116101ab578063095ea7b3146102775780631a7eb8c8146102a05780631dd92a66146102dd57806323b872dd1461031a576101cd565b806301ffc9a7146101d257806306fdde031461020f578063081812fc1461023a575b600080fd5b3480156101de57600080fd5b506101f960048036038101906101f49190613a71565b610813565b6040516102069190613ab9565b60405180910390f35b34801561021b57600080fd5b506102246108f5565b6040516102319190613b6d565b60405180910390f35b34801561024657600080fd5b50610261600480360381019061025c9190613bc5565b610987565b60405161026e9190613c33565b60405180910390f35b34801561028357600080fd5b5061029e60048036038101906102999190613c7a565b610a0c565b005b3480156102ac57600080fd5b506102c760048036038101906102c29190613c7a565b610b24565b6040516102d49190613cc9565b60405180910390f35b3480156102e957600080fd5b5061030460048036038101906102ff9190613ce4565b610b55565b6040516103119190613ab9565b60405180910390f35b34801561032657600080fd5b50610341600480360381019061033c9190613d24565b611369565b005b34801561034f57600080fd5b5061036a60048036038101906103659190613d77565b6113c9565b6040516103779190613cc9565b60405180910390f35b34801561038c57600080fd5b506103a760048036038101906103a29190613d24565b6113ee565b005b3480156103b557600080fd5b506103d060048036038101906103cb9190613db7565b61140e565b6040516103dd9190613cc9565b60405180910390f35b3480156103f257600080fd5b506103fb611425565b6040516104089190613cc9565b60405180910390f35b34801561041d57600080fd5b5061042661142b565b6040516104339190613cc9565b60405180910390f35b34801561044857600080fd5b50610463600480360381019061045e9190613f19565b611433565b005b34801561047157600080fd5b5061048c60048036038101906104879190613bc5565b61171e565b6040516104999190613c33565b60405180910390f35b3480156104ae57600080fd5b506104b76117d0565b6040516104c49190613b6d565b60405180910390f35b3480156104d957600080fd5b506104f460048036038101906104ef9190613db7565b61185e565b6040516105019190613cc9565b60405180910390f35b34801561051657600080fd5b50610531600480360381019061052c9190613db7565b611916565b60405161053e9190613cc9565b60405180910390f35b34801561055357600080fd5b5061055c61192e565b6040516105699190613b6d565b60405180910390f35b34801561057e57600080fd5b5061059960048036038101906105949190613f75565b6119c0565b6040516105a69190613ab9565b60405180910390f35b3480156105bb57600080fd5b506105d660048036038101906105d19190613ff4565b611ef3565b005b3480156105e457600080fd5b506105ff60048036038101906105fa9190614034565b612074565b60405161060c9190613ab9565b60405180910390f35b34801561062157600080fd5b5061063c60048036038101906106379190613bc5565b6120aa565b6040516106499190613c33565b60405180910390f35b34801561065e57600080fd5b506106796004803603810190610674919061411e565b6120c1565b005b34801561068757600080fd5b506106a2600480360381019061069d9190613bc5565b612123565b6040516106af9190613ab9565b60405180910390f35b3480156106c457600080fd5b506106df60048036038101906106da9190613bc5565b612359565b6040516106f39897969594939291906141c2565b60405180910390f35b34801561070857600080fd5b50610723600480360381019061071e9190613bc5565b612496565b60405161073596959493929190614247565b60405180910390f35b34801561074a57600080fd5b5061076560048036038101906107609190613bc5565b61250c565b6040516107729190613b6d565b60405180910390f35b34801561078757600080fd5b5061079061265e565b60405161079d9190613b6d565b60405180910390f35b3480156107b257600080fd5b506107cd60048036038101906107c891906142a8565b6126ec565b6040516107da9190613ab9565b60405180910390f35b6107fd60048036038101906107f89190613bc5565b612780565b60405161080a9190613ab9565b60405180910390f35b60007f80ac58cd000000000000000000000000000000000000000000000000000000007bffffffffffffffffffffffffffffffffffffffffffffffffffffffff1916827bffffffffffffffffffffffffffffffffffffffffffffffffffffffff191614806108de57507f5b5e139f000000000000000000000000000000000000000000000000000000007bffffffffffffffffffffffffffffffffffffffffffffffffffffffff1916827bffffffffffffffffffffffffffffffffffffffffffffffffffffffff1916145b806108ee57506108ed82612e20565b5b9050919050565b60606000805461090490614317565b80601f016020809104026020016040519081016040528092919081815260200182805461093090614317565b801561097d5780601f106109525761010080835404028352916020019161097d565b820191906000526020600020905b81548152906001019060200180831161096057829003601f168201915b5050505050905090565b600061099282612e8a565b6109d1576040517f08c379a00000000000000000000000000000000000000000000000000000000081526004016109c8906143bb565b60405180910390fd5b6004600083815260200190815260200160002060009054906101000a900473ffffffffffffffffffffffffffffffffffffffff169050919050565b6000610a178261171e565b90508073ffffffffffffffffffffffffffffffffffffffff168373ffffffffffffffffffffffffffffffffffffffff161415610a88576040517f08c379a0000000000000000000000000000000000000000000000000000000008152600401610a7f9061444d565b60405180910390fd5b8073ffffffffffffffffffffffffffffffffffffffff16610aa7612ef6565b73ffffffffffffffffffffffffffffffffffffffff161480610ad65750610ad581610ad0612ef6565b6126ec565b5b610b15576040517f08c379a0000000000000000000000000000000000000000000000000000000008152600401610b0c906144df565b60405180910390fd5b610b1f8383612efe565b505050565b600d6020528160005260406000208181548110610b4057600080fd5b90600052602060002001600091509150505481565b600082610b6181612e8a565b610ba0576040517f08c379a0000000000000000000000000000000000000000000000000000000008152600401610b979061454b565b60405180910390fd5b83610baa8161171e565b73ffffffffffffffffffffffffffffffffffffffff163373ffffffffffffffffffffffffffffffffffffffff161415610c18576040517f08c379a0000000000000000000000000000000000000000000000000000000008152600401610c0f906145b7565b60405180910390fd5b846000600b60008381526020019081526020016000206040518060c0016040529081600082015481526020016001820160009054906101000a900473ffffffffffffffffffffffffffffffffffffffff1673ffffffffffffffffffffffffffffffffffffffff1673ffffffffffffffffffffffffffffffffffffffff16815260200160028201548152602001600382015481526020016004820160009054906101000a900460ff161515151581526020016004820160019054906101000a900460ff16151515158152505090508060600151421115610d2c576040517f08c379a0000000000000000000000000000000000000000000000000000000008152600401610d2390614623565b60405180910390fd5b6000600b60008981526020019081526020016000206040518060c0016040529081600082015481526020016001820160009054906101000a900473ffffffffffffffffffffffffffffffffffffffff1673ffffffffffffffffffffffffffffffffffffffff1673ffffffffffffffffffffffffffffffffffffffff16815260200160028201548152602001600382015481526020016004820160009054906101000a900460ff161515151581526020016004820160019054906101000a900460ff161515151581525050905080604001518711610e0857600080fd5b6000600a60008a81526020019081526020016000206040518061010001604052908160008201548152602001600182018054610e4390614317565b80601f0160208091040260200160405190810160405280929190818152602001828054610e6f90614317565b8015610ebc5780601f10610e9157610100808354040283529160200191610ebc565b820191906000526020600020905b815481529060010190602001808311610e9f57829003601f168201915b505050505081526020016002820160009054906101000a900473ffffffffffffffffffffffffffffffffffffffff1673ffffffffffffffffffffffffffffffffffffffff1673ffffffffffffffffffffffffffffffffffffffff1681526020016003820160009054906101000a900473ffffffffffffffffffffffffffffffffffffffff1673ffffffffffffffffffffffffffffffffffffffff1673ffffffffffffffffffffffffffffffffffffffff1681526020016004820160009054906101000a900473ffffffffffffffffffffffffffffffffffffffff1673ffffffffffffffffffffffffffffffffffffffff1673ffffffffffffffffffffffffffffffffffffffff16815260200160058201548152602001600682015481526020016007820160009054906101000a900460ff1615151515815250509050878160a001818152505080600a60008b815260200190815260200160002060008201518160000155602082015181600101908051906020019061103c929190613962565b5060408201518160020160006101000a81548173ffffffffffffffffffffffffffffffffffffffff021916908373ffffffffffffffffffffffffffffffffffffffff16021790555060608201518160030160006101000a81548173ffffffffffffffffffffffffffffffffffffffff021916908373ffffffffffffffffffffffffffffffffffffffff16021790555060808201518160040160006101000a81548173ffffffffffffffffffffffffffffffffffffffff021916908373ffffffffffffffffffffffffffffffffffffffff16021790555060a0820151816005015560c0820151816006015560e08201518160070160006101000a81548160ff0219169083151502179055509050506001600e60003373ffffffffffffffffffffffffffffffffffffffff1673ffffffffffffffffffffffffffffffffffffffff16815260200190815260200160002060008282546111999190614672565b92505081905550600d60003373ffffffffffffffffffffffffffffffffffffffff1673ffffffffffffffffffffffffffffffffffffffff16815260200190815260200160002089908060018154018082558091505060019003906000526020600020016000909190919091505587600c60008b815260200190815260200160002060003373ffffffffffffffffffffffffffffffffffffffff1673ffffffffffffffffffffffffffffffffffffffff1681526020019081526020016000208190555033826020019073ffffffffffffffffffffffffffffffffffffffff16908173ffffffffffffffffffffffffffffffffffffffff16815250508782604001818152505081600b60008b81526020019081526020016000206000820151816000015560208201518160010160006101000a81548173ffffffffffffffffffffffffffffffffffffffff021916908373ffffffffffffffffffffffffffffffffffffffff160217905550604082015181600201556060820151816003015560808201518160040160006101000a81548160ff02191690831515021790555060a08201518160040160016101000a81548160ff0219169083151502179055509050506001965050505050505092915050565b61137a611374612ef6565b82612fb7565b6113b9576040517f08c379a00000000000000000000000000000000000000000000000000000000081526004016113b09061473a565b60405180910390fd5b6113c4838383613095565b505050565b600c602052816000526040600020602052806000526040600020600091509150505481565b611409838383604051806020016040528060008152506120c1565b505050565b60008061141a8361185e565b905080915050919050565b60095481565b600042905090565b600073ffffffffffffffffffffffffffffffffffffffff163373ffffffffffffffffffffffffffffffffffffffff1614156114a3576040517f08c379a000000000000000000000000000000000000000000000000000000000815260040161149a906147cc565b60405180910390fd5b600960008154809291906114b6906147ec565b91905055506114c6600954612e8a565b156114d057600080fd5b600f826040516114e09190614871565b908152602001604051809103902060009054906101000a900460ff161561150657600080fd5b611512336009546132f1565b6001600f836040516115249190614871565b908152602001604051809103902060006101000a81548160ff021916908315150217905550600060405180610100016040528060095481526020018481526020013373ffffffffffffffffffffffffffffffffffffffff1681526020013373ffffffffffffffffffffffffffffffffffffffff168152602001600073ffffffffffffffffffffffffffffffffffffffff1681526020018381526020016000815260200160001515815250905080600a6000600954815260200190815260200160002060008201518160000155602082015181600101908051906020019061160c929190613962565b5060408201518160020160006101000a81548173ffffffffffffffffffffffffffffffffffffffff021916908373ffffffffffffffffffffffffffffffffffffffff16021790555060608201518160030160006101000a81548173ffffffffffffffffffffffffffffffffffffffff021916908373ffffffffffffffffffffffffffffffffffffffff16021790555060808201518160040160006101000a81548173ffffffffffffffffffffffffffffffffffffffff021916908373ffffffffffffffffffffffffffffffffffffffff16021790555060a0820151816005015560c0820151816006015560e08201518160070160006101000a81548160ff021916908315150217905550905050505050565b6000806002600084815260200190815260200160002060009054906101000a900473ffffffffffffffffffffffffffffffffffffffff169050600073ffffffffffffffffffffffffffffffffffffffff168173ffffffffffffffffffffffffffffffffffffffff1614156117c7576040517f08c379a00000000000000000000000000000000000000000000000000000000081526004016117be906148fa565b60405180910390fd5b80915050919050565b600880546117dd90614317565b80601f016020809104026020016040519081016040528092919081815260200182805461180990614317565b80156118565780601f1061182b57610100808354040283529160200191611856565b820191906000526020600020905b81548152906001019060200180831161183957829003601f168201915b505050505081565b60008073ffffffffffffffffffffffffffffffffffffffff168273ffffffffffffffffffffffffffffffffffffffff1614156118cf576040517f08c379a00000000000000000000000000000000000000000000000000000000081526004016118c69061498c565b60405180910390fd5b600360008373ffffffffffffffffffffffffffffffffffffffff1673ffffffffffffffffffffffffffffffffffffffff168152602001908152602001600020549050919050565b600e6020528060005260406000206000915090505481565b60606001805461193d90614317565b80601f016020809104026020016040519081016040528092919081815260200182805461196990614317565b80156119b65780601f1061198b576101008083540402835291602001916119b6565b820191906000526020600020905b81548152906001019060200180831161199957829003601f168201915b5050505050905090565b6000836119cc81612e8a565b611a0b576040517f08c379a0000000000000000000000000000000000000000000000000000000008152600401611a029061454b565b60405180910390fd5b84611a158161171e565b73ffffffffffffffffffffffffffffffffffffffff163373ffffffffffffffffffffffffffffffffffffffff1614611a82576040517f08c379a0000000000000000000000000000000000000000000000000000000008152600401611a7990614a1e565b60405180910390fd5b60008442611a909190614672565b90506000600a60008981526020019081526020016000206040518061010001604052908160008201548152602001600182018054611acd90614317565b80601f0160208091040260200160405190810160405280929190818152602001828054611af990614317565b8015611b465780601f10611b1b57610100808354040283529160200191611b46565b820191906000526020600020905b815481529060010190602001808311611b2957829003601f168201915b505050505081526020016002820160009054906101000a900473ffffffffffffffffffffffffffffffffffffffff1673ffffffffffffffffffffffffffffffffffffffff1673ffffffffffffffffffffffffffffffffffffffff1681526020016003820160009054906101000a900473ffffffffffffffffffffffffffffffffffffffff1673ffffffffffffffffffffffffffffffffffffffff1673ffffffffffffffffffffffffffffffffffffffff1681526020016004820160009054906101000a900473ffffffffffffffffffffffffffffffffffffffff1673ffffffffffffffffffffffffffffffffffffffff1673ffffffffffffffffffffffffffffffffffffffff16815260200160058201548152602001600682015481526020016007820160009054906101000a900460ff161515151581525050905060018160e001901515908115158152505060006040518060c001604052808981526020013373ffffffffffffffffffffffffffffffffffffffff16815260200189815260200184815260200160001515815260200160001515815250905081600a60008b8152602001908152602001600020600082015181600001556020820151816001019080519060200190611d1a929190613962565b5060408201518160020160006101000a81548173ffffffffffffffffffffffffffffffffffffffff021916908373ffffffffffffffffffffffffffffffffffffffff16021790555060608201518160030160006101000a81548173ffffffffffffffffffffffffffffffffffffffff021916908373ffffffffffffffffffffffffffffffffffffffff16021790555060808201518160040160006101000a81548173ffffffffffffffffffffffffffffffffffffffff021916908373ffffffffffffffffffffffffffffffffffffffff16021790555060a0820151816005015560c0820151816006015560e08201518160070160006101000a81548160ff02191690831515021790555090505080600b60008b81526020019081526020016000206000820151816000015560208201518160010160006101000a81548173ffffffffffffffffffffffffffffffffffffffff021916908373ffffffffffffffffffffffffffffffffffffffff160217905550604082015181600201556060820151816003015560808201518160040160006101000a81548160ff02191690831515021790555060a08201518160040160016101000a81548160ff0219169083151502179055509050506001955050505050509392505050565b611efb612ef6565b73ffffffffffffffffffffffffffffffffffffffff168273ffffffffffffffffffffffffffffffffffffffff161415611f69576040517f08c379a0000000000000000000000000000000000000000000000000000000008152600401611f6090614a8a565b60405180910390fd5b8060056000611f76612ef6565b73ffffffffffffffffffffffffffffffffffffffff1673ffffffffffffffffffffffffffffffffffffffff16815260200190815260200160002060008473ffffffffffffffffffffffffffffffffffffffff1673ffffffffffffffffffffffffffffffffffffffff16815260200190815260200160002060006101000a81548160ff0219169083151502179055508173ffffffffffffffffffffffffffffffffffffffff16612023612ef6565b73ffffffffffffffffffffffffffffffffffffffff167f17307eab39ab6107e8899845ad3d59bd9653f200f220920489ca2b5937696c31836040516120689190613ab9565b60405180910390a35050565b600f818051602081018201805184825260208301602085012081835280955050505050506000915054906101000a900460ff1681565b6000806120b68361171e565b905080915050919050565b6120d26120cc612ef6565b83612fb7565b612111576040517f08c379a00000000000000000000000000000000000000000000000000000000081526004016121089061473a565b60405180910390fd5b61211d8484848461330f565b50505050565b60008161212f81612e8a565b61216e576040517f08c379a00000000000000000000000000000000000000000000000000000000081526004016121659061454b565b60405180910390fd5b6000600b60008581526020019081526020016000206040518060c0016040529081600082015481526020016001820160009054906101000a900473ffffffffffffffffffffffffffffffffffffffff1673ffffffffffffffffffffffffffffffffffffffff1673ffffffffffffffffffffffffffffffffffffffff16815260200160028201548152602001600382015481526020016004820160009054906101000a900460ff161515151581526020016004820160019054906101000a900460ff16151515158152505090508060600151421015612281576040517f08c379a000000000000000000000000000000000000000000000000000000000815260040161227890614af6565b60405180910390fd5b600181608001901515908115158152505080600b60008681526020019081526020016000206000820151816000015560208201518160010160006101000a81548173ffffffffffffffffffffffffffffffffffffffff021916908373ffffffffffffffffffffffffffffffffffffffff160217905550604082015181600201556060820151816003015560808201518160040160006101000a81548160ff02191690831515021790555060a08201518160040160016101000a81548160ff021916908315150217905550905050600192505050919050565b600a60205280600052604060002060009150905080600001549080600101805461238290614317565b80601f01602080910402602001604051908101604052809291908181526020018280546123ae90614317565b80156123fb5780601f106123d0576101008083540402835291602001916123fb565b820191906000526020600020905b8154815290600101906020018083116123de57829003601f168201915b5050505050908060020160009054906101000a900473ffffffffffffffffffffffffffffffffffffffff16908060030160009054906101000a900473ffffffffffffffffffffffffffffffffffffffff16908060040160009054906101000a900473ffffffffffffffffffffffffffffffffffffffff16908060050154908060060154908060070160009054906101000a900460ff16905088565b600b6020528060005260406000206000915090508060000154908060010160009054906101000a900473ffffffffffffffffffffffffffffffffffffffff16908060020154908060030154908060040160009054906101000a900460ff16908060040160019054906101000a900460ff16905086565b606061251782612e8a565b612556576040517f08c379a000000000000000000000000000000000000000000000000000000000815260040161254d90614b88565b60405180910390fd5b600060066000848152602001908152602001600020805461257690614317565b80601f01602080910402602001604051908101604052809291908181526020018280546125a290614317565b80156125ef5780601f106125c4576101008083540402835291602001916125ef565b820191906000526020600020905b8154815290600101906020018083116125d257829003601f168201915b50505050509050600061260061336b565b9050600081511415612616578192505050612659565b60008251111561264b578082604051602001612633929190614ba8565b60405160208183030381529060405292505050612659565b61265484613382565b925050505b919050565b6007805461266b90614317565b80601f016020809104026020016040519081016040528092919081815260200182805461269790614317565b80156126e45780601f106126b9576101008083540402835291602001916126e4565b820191906000526020600020905b8154815290600101906020018083116126c757829003601f168201915b505050505081565b6000600560008473ffffffffffffffffffffffffffffffffffffffff1673ffffffffffffffffffffffffffffffffffffffff16815260200190815260200160002060008373ffffffffffffffffffffffffffffffffffffffff1673ffffffffffffffffffffffffffffffffffffffff16815260200190815260200160002060009054906101000a900460ff16905092915050565b60008161278c81612e8a565b6127cb576040517f08c379a00000000000000000000000000000000000000000000000000000000081526004016127c29061454b565b60405180910390fd5b600073ffffffffffffffffffffffffffffffffffffffff163373ffffffffffffffffffffffffffffffffffffffff16141561283b576040517f08c379a0000000000000000000000000000000000000000000000000000000008152600401612832906147cc565b60405180910390fd5b6000600b60008581526020019081526020016000206040518060c0016040529081600082015481526020016001820160009054906101000a900473ffffffffffffffffffffffffffffffffffffffff1673ffffffffffffffffffffffffffffffffffffffff1673ffffffffffffffffffffffffffffffffffffffff16815260200160028201548152602001600382015481526020016004820160009054906101000a900460ff161515151581526020016004820160019054906101000a900460ff1615151515815250509050806080015161294b576040517f08c379a000000000000000000000000000000000000000000000000000000000815260040161294290614af6565b60405180910390fd5b8060a001511561295a57600080fd5b806020015173ffffffffffffffffffffffffffffffffffffffff163373ffffffffffffffffffffffffffffffffffffffff161461299657600080fd5b60006129a18561171e565b9050600073ffffffffffffffffffffffffffffffffffffffff168173ffffffffffffffffffffffffffffffffffffffff1614156129dd57600080fd5b6000600a60008781526020019081526020016000206040518061010001604052908160008201548152602001600182018054612a1890614317565b80601f0160208091040260200160405190810160405280929190818152602001828054612a4490614317565b8015612a915780601f10612a6657610100808354040283529160200191612a91565b820191906000526020600020905b815481529060010190602001808311612a7457829003601f168201915b505050505081526020016002820160009054906101000a900473ffffffffffffffffffffffffffffffffffffffff1673ffffffffffffffffffffffffffffffffffffffff1673ffffffffffffffffffffffffffffffffffffffff1681526020016003820160009054906101000a900473ffffffffffffffffffffffffffffffffffffffff1673ffffffffffffffffffffffffffffffffffffffff1673ffffffffffffffffffffffffffffffffffffffff1681526020016004820160009054906101000a900473ffffffffffffffffffffffffffffffffffffffff1673ffffffffffffffffffffffffffffffffffffffff1673ffffffffffffffffffffffffffffffffffffffff16815260200160058201548152602001600682015481526020016007820160009054906101000a900460ff1615151515815250509050612bd8823388613095565b8173ffffffffffffffffffffffffffffffffffffffff166108fc349081150290604051600060405180830381858888f19350505050158015612c1e573d6000803e3d6000fd5b508060600151816080019073ffffffffffffffffffffffffffffffffffffffff16908173ffffffffffffffffffffffffffffffffffffffff168152505033816060019073ffffffffffffffffffffffffffffffffffffffff16908173ffffffffffffffffffffffffffffffffffffffff168152505082604001518160a001818152505060018160c001818151612cb49190614672565b9150818152505060008160e001901515908115158152505080600a6000888152602001908152602001600020600082015181600001556020820151816001019080519060200190612d06929190613962565b5060408201518160020160006101000a81548173ffffffffffffffffffffffffffffffffffffffff021916908373ffffffffffffffffffffffffffffffffffffffff16021790555060608201518160030160006101000a81548173ffffffffffffffffffffffffffffffffffffffff021916908373ffffffffffffffffffffffffffffffffffffffff16021790555060808201518160040160006101000a81548173ffffffffffffffffffffffffffffffffffffffff021916908373ffffffffffffffffffffffffffffffffffffffff16021790555060a0820151816005015560c0820151816006015560e08201518160070160006101000a81548160ff0219169083151502179055509050506001945050505050919050565b60007f01ffc9a7000000000000000000000000000000000000000000000000000000007bffffffffffffffffffffffffffffffffffffffffffffffffffffffff1916827bffffffffffffffffffffffffffffffffffffffffffffffffffffffff1916149050919050565b60008073ffffffffffffffffffffffffffffffffffffffff166002600084815260200190815260200160002060009054906101000a900473ffffffffffffffffffffffffffffffffffffffff1673ffffffffffffffffffffffffffffffffffffffff1614159050919050565b600033905090565b816004600083815260200190815260200160002060006101000a81548173ffffffffffffffffffffffffffffffffffffffff021916908373ffffffffffffffffffffffffffffffffffffffff160217905550808273ffffffffffffffffffffffffffffffffffffffff16612f718361171e565b73ffffffffffffffffffffffffffffffffffffffff167f8c5be1e5ebec7d5bd14f71427d1e84f3dd0314c0f7b2291e5b200ac8c7c3b92560405160405180910390a45050565b6000612fc282612e8a565b613001576040517f08c379a0000000000000000000000000000000000000000000000000000000008152600401612ff890614c3e565b60405180910390fd5b600061300c8361171e565b90508073ffffffffffffffffffffffffffffffffffffffff168473ffffffffffffffffffffffffffffffffffffffff16148061307b57508373ffffffffffffffffffffffffffffffffffffffff1661306384610987565b73ffffffffffffffffffffffffffffffffffffffff16145b8061308c575061308b81856126ec565b5b91505092915050565b8273ffffffffffffffffffffffffffffffffffffffff166130b58261171e565b73ffffffffffffffffffffffffffffffffffffffff161461310b576040517f08c379a000000000000000000000000000000000000000000000000000000000815260040161310290614cd0565b60405180910390fd5b600073ffffffffffffffffffffffffffffffffffffffff168273ffffffffffffffffffffffffffffffffffffffff16141561317b576040517f08c379a000000000000000000000000000000000000000000000000000000000815260040161317290614d62565b60405180910390fd5b613186838383613429565b613191600082612efe565b6001600360008573ffffffffffffffffffffffffffffffffffffffff1673ffffffffffffffffffffffffffffffffffffffff16815260200190815260200160002060008282546131e19190614d82565b925050819055506001600360008473ffffffffffffffffffffffffffffffffffffffff1673ffffffffffffffffffffffffffffffffffffffff16815260200190815260200160002060008282546132389190614672565b92505081905550816002600083815260200190815260200160002060006101000a81548173ffffffffffffffffffffffffffffffffffffffff021916908373ffffffffffffffffffffffffffffffffffffffff160217905550808273ffffffffffffffffffffffffffffffffffffffff168473ffffffffffffffffffffffffffffffffffffffff167fddf252ad1be2c89b69c2b068fc378daa952ba7f163c4a11628f55a4df523b3ef60405160405180910390a4505050565b61330b82826040518060200160405280600081525061342e565b5050565b61331a848484613095565b61332684848484613489565b613365576040517f08c379a000000000000000000000000000000000000000000000000000000000815260040161335c90614e28565b60405180910390fd5b50505050565b606060405180602001604052806000815250905090565b606061338d82612e8a565b6133cc576040517f08c379a00000000000000000000000000000000000000000000000000000000081526004016133c390614eba565b60405180910390fd5b60006133d661336b565b905060008151116133f65760405180602001604052806000815250613421565b8061340084613620565b604051602001613411929190614ba8565b6040516020818303038152906040525b915050919050565b505050565b6134388383613781565b6134456000848484613489565b613484576040517f08c379a000000000000000000000000000000000000000000000000000000000815260040161347b90614e28565b60405180910390fd5b505050565b60006134aa8473ffffffffffffffffffffffffffffffffffffffff1661394f565b15613613578373ffffffffffffffffffffffffffffffffffffffff1663150b7a026134d3612ef6565b8786866040518563ffffffff1660e01b81526004016134f59493929190614f2f565b602060405180830381600087803b15801561350f57600080fd5b505af192505050801561354057506040513d601f19601f8201168201806040525081019061353d9190614f90565b60015b6135c3573d8060008114613570576040519150601f19603f3d011682016040523d82523d6000602084013e613575565b606091505b506000815114156135bb576040517f08c379a00000000000000000000000000000000000000000000000000000000081526004016135b290614e28565b60405180910390fd5b805181602001fd5b63150b7a0260e01b7bffffffffffffffffffffffffffffffffffffffffffffffffffffffff1916817bffffffffffffffffffffffffffffffffffffffffffffffffffffffff191614915050613618565b600190505b949350505050565b60606000821415613668576040518060400160405280600181526020017f3000000000000000000000000000000000000000000000000000000000000000815250905061377c565b600082905060005b6000821461369a578080613683906147ec565b915050600a826136939190614fec565b9150613670565b60008167ffffffffffffffff8111156136b6576136b5613dee565b5b6040519080825280601f01601f1916602001820160405280156136e85781602001600182028036833780820191505090505b5090505b60008514613775576001826137019190614d82565b9150600a85613710919061501d565b603061371c9190614672565b60f81b8183815181106137325761373161504e565b5b60200101907effffffffffffffffffffffffffffffffffffffffffffffffffffffffffffff1916908160001a905350600a8561376e9190614fec565b94506136ec565b8093505050505b919050565b600073ffffffffffffffffffffffffffffffffffffffff168273ffffffffffffffffffffffffffffffffffffffff1614156137f1576040517f08c379a00000000000000000000000000000000000000000000000000000000081526004016137e8906150c9565b60405180910390fd5b6137fa81612e8a565b1561383a576040517f08c379a000000000000000000000000000000000000000000000000000000000815260040161383190615135565b60405180910390fd5b61384660008383613429565b6001600360008473ffffffffffffffffffffffffffffffffffffffff1673ffffffffffffffffffffffffffffffffffffffff16815260200190815260200160002060008282546138969190614672565b92505081905550816002600083815260200190815260200160002060006101000a81548173ffffffffffffffffffffffffffffffffffffffff021916908373ffffffffffffffffffffffffffffffffffffffff160217905550808273ffffffffffffffffffffffffffffffffffffffff16600073ffffffffffffffffffffffffffffffffffffffff167fddf252ad1be2c89b69c2b068fc378daa952ba7f163c4a11628f55a4df523b3ef60405160405180910390a45050565b600080823b905060008111915050919050565b82805461396e90614317565b90600052602060002090601f01602090048101928261399057600085556139d7565b82601f106139a957805160ff19168380011785556139d7565b828001600101855582156139d7579182015b828111156139d65782518255916020019190600101906139bb565b5b5090506139e491906139e8565b5090565b5b80821115613a015760008160009055506001016139e9565b5090565b6000604051905090565b600080fd5b600080fd5b60007fffffffff0000000000000000000000000000000000000000000000000000000082169050919050565b613a4e81613a19565b8114613a5957600080fd5b50565b600081359050613a6b81613a45565b92915050565b600060208284031215613a8757613a86613a0f565b5b6000613a9584828501613a5c565b91505092915050565b60008115159050919050565b613ab381613a9e565b82525050565b6000602082019050613ace6000830184613aaa565b92915050565b600081519050919050565b600082825260208201905092915050565b60005b83811015613b0e578082015181840152602081019050613af3565b83811115613b1d576000848401525b50505050565b6000601f19601f8301169050919050565b6000613b3f82613ad4565b613b498185613adf565b9350613b59818560208601613af0565b613b6281613b23565b840191505092915050565b60006020820190508181036000830152613b878184613b34565b905092915050565b6000819050919050565b613ba281613b8f565b8114613bad57600080fd5b50565b600081359050613bbf81613b99565b92915050565b600060208284031215613bdb57613bda613a0f565b5b6000613be984828501613bb0565b91505092915050565b600073ffffffffffffffffffffffffffffffffffffffff82169050919050565b6000613c1d82613bf2565b9050919050565b613c2d81613c12565b82525050565b6000602082019050613c486000830184613c24565b92915050565b613c5781613c12565b8114613c6257600080fd5b50565b600081359050613c7481613c4e565b92915050565b60008060408385031215613c9157613c90613a0f565b5b6000613c9f85828601613c65565b9250506020613cb085828601613bb0565b9150509250929050565b613cc381613b8f565b82525050565b6000602082019050613cde6000830184613cba565b92915050565b60008060408385031215613cfb57613cfa613a0f565b5b6000613d0985828601613bb0565b9250506020613d1a85828601613bb0565b9150509250929050565b600080600060608486031215613d3d57613d3c613a0f565b5b6000613d4b86828701613c65565b9350506020613d5c86828701613c65565b9250506040613d6d86828701613bb0565b9150509250925092565b60008060408385031215613d8e57613d8d613a0f565b5b6000613d9c85828601613bb0565b9250506020613dad85828601613c65565b9150509250929050565b600060208284031215613dcd57613dcc613a0f565b5b6000613ddb84828501613c65565b91505092915050565b600080fd5b600080fd5b7f4e487b7100000000000000000000000000000000000000000000000000000000600052604160045260246000fd5b613e2682613b23565b810181811067ffffffffffffffff82111715613e4557613e44613dee565b5b80604052505050565b6000613e58613a05565b9050613e648282613e1d565b919050565b600067ffffffffffffffff821115613e8457613e83613dee565b5b613e8d82613b23565b9050602081019050919050565b82818337600083830152505050565b6000613ebc613eb784613e69565b613e4e565b905082815260208101848484011115613ed857613ed7613de9565b5b613ee3848285613e9a565b509392505050565b600082601f830112613f0057613eff613de4565b5b8135613f10848260208601613ea9565b91505092915050565b60008060408385031215613f3057613f2f613a0f565b5b600083013567ffffffffffffffff811115613f4e57613f4d613a14565b5b613f5a85828601613eeb565b9250506020613f6b85828601613bb0565b9150509250929050565b600080600060608486031215613f8e57613f8d613a0f565b5b6000613f9c86828701613bb0565b9350506020613fad86828701613bb0565b9250506040613fbe86828701613bb0565b9150509250925092565b613fd181613a9e565b8114613fdc57600080fd5b50565b600081359050613fee81613fc8565b92915050565b6000806040838503121561400b5761400a613a0f565b5b600061401985828601613c65565b925050602061402a85828601613fdf565b9150509250929050565b60006020828403121561404a57614049613a0f565b5b600082013567ffffffffffffffff81111561406857614067613a14565b5b61407484828501613eeb565b91505092915050565b600067ffffffffffffffff82111561409857614097613dee565b5b6140a182613b23565b9050602081019050919050565b60006140c16140bc8461407d565b613e4e565b9050828152602081018484840111156140dd576140dc613de9565b5b6140e8848285613e9a565b509392505050565b600082601f83011261410557614104613de4565b5b81356141158482602086016140ae565b91505092915050565b6000806000806080858703121561413857614137613a0f565b5b600061414687828801613c65565b945050602061415787828801613c65565b935050604061416887828801613bb0565b925050606085013567ffffffffffffffff81111561418957614188613a14565b5b614195878288016140f0565b91505092959194509250565b60006141ac82613bf2565b9050919050565b6141bc816141a1565b82525050565b6000610100820190506141d8600083018b613cba565b81810360208301526141ea818a613b34565b90506141f960408301896141b3565b61420660608301886141b3565b61421360808301876141b3565b61422060a0830186613cba565b61422d60c0830185613cba565b61423a60e0830184613aaa565b9998505050505050505050565b600060c08201905061425c6000830189613cba565b61426960208301886141b3565b6142766040830187613cba565b6142836060830186613cba565b6142906080830185613aaa565b61429d60a0830184613aaa565b979650505050505050565b600080604083850312156142bf576142be613a0f565b5b60006142cd85828601613c65565b92505060206142de85828601613c65565b9150509250929050565b7f4e487b7100000000000000000000000000000000000000000000000000000000600052602260045260246000fd5b6000600282049050600182168061432f57607f821691505b60208210811415614343576143426142e8565b5b50919050565b7f4552433732313a20617070726f76656420717565727920666f72206e6f6e657860008201527f697374656e7420746f6b656e0000000000000000000000000000000000000000602082015250565b60006143a5602c83613adf565b91506143b082614349565b604082019050919050565b600060208201905081810360008301526143d481614398565b9050919050565b7f4552433732313a20617070726f76616c20746f2063757272656e74206f776e6560008201527f7200000000000000000000000000000000000000000000000000000000000000602082015250565b6000614437602183613adf565b9150614442826143db565b604082019050919050565b600060208201905081810360008301526144668161442a565b9050919050565b7f4552433732313a20617070726f76652063616c6c6572206973206e6f74206f7760008201527f6e6572206e6f7220617070726f76656420666f7220616c6c0000000000000000602082015250565b60006144c9603883613adf565b91506144d48261446d565b604082019050919050565b600060208201905081810360008301526144f8816144bc565b9050919050565b7f546f6b656e20494420646f6573206e6f742065786973742e0000000000000000600082015250565b6000614535601883613adf565b9150614540826144ff565b602082019050919050565b6000602082019050818103600083015261456481614528565b9050919050565b7f4f776e65722063616e6e6f742063616c6c20746869732066756e6374696f6e2e600082015250565b60006145a1602083613adf565b91506145ac8261456b565b602082019050919050565b600060208201905081810360008301526145d081614594565b9050919050565b7f41756374696f6e20616c726561647920656e6465642e00000000000000000000600082015250565b600061460d601683613adf565b9150614618826145d7565b602082019050919050565b6000602082019050818103600083015261463c81614600565b9050919050565b7f4e487b7100000000000000000000000000000000000000000000000000000000600052601160045260246000fd5b600061467d82613b8f565b915061468883613b8f565b9250827fffffffffffffffffffffffffffffffffffffffffffffffffffffffffffffffff038211156146bd576146bc614643565b5b828201905092915050565b7f4552433732313a207472616e736665722063616c6c6572206973206e6f74206f60008201527f776e6572206e6f7220617070726f766564000000000000000000000000000000602082015250565b6000614724603183613adf565b915061472f826146c8565b604082019050919050565b6000602082019050818103600083015261475381614717565b9050919050565b7f546865206675636e74696f6e2063616c6c6572206973207a65726f206164647260008201527f657373206163636f756e742e0000000000000000000000000000000000000000602082015250565b60006147b6602c83613adf565b91506147c18261475a565b604082019050919050565b600060208201905081810360008301526147e5816147a9565b9050919050565b60006147f782613b8f565b91507fffffffffffffffffffffffffffffffffffffffffffffffffffffffffffffffff82141561482a57614829614643565b5b600182019050919050565b600081905092915050565b600061484b82613ad4565b6148558185614835565b9350614865818560208601613af0565b80840191505092915050565b600061487d8284614840565b915081905092915050565b7f4552433732313a206f776e657220717565727920666f72206e6f6e657869737460008201527f656e7420746f6b656e0000000000000000000000000000000000000000000000602082015250565b60006148e4602983613adf565b91506148ef82614888565b604082019050919050565b60006020820190508181036000830152614913816148d7565b9050919050565b7f4552433732313a2062616c616e636520717565727920666f7220746865207a6560008201527f726f206164647265737300000000000000000000000000000000000000000000602082015250565b6000614976602a83613adf565b91506149818261491a565b604082019050919050565b600060208201905081810360008301526149a581614969565b9050919050565b7f4f6e6c79206f776e65722063616e2063616c6c20746869732066756e6374696f60008201527f6e2e000000000000000000000000000000000000000000000000000000000000602082015250565b6000614a08602283613adf565b9150614a13826149ac565b604082019050919050565b60006020820190508181036000830152614a37816149fb565b9050919050565b7f4552433732313a20617070726f766520746f2063616c6c657200000000000000600082015250565b6000614a74601983613adf565b9150614a7f82614a3e565b602082019050919050565b60006020820190508181036000830152614aa381614a67565b9050919050565b7f41756374696f6e206e6f742079657420656e6465642e00000000000000000000600082015250565b6000614ae0601683613adf565b9150614aeb82614aaa565b602082019050919050565b60006020820190508181036000830152614b0f81614ad3565b9050919050565b7f45524337323155524953746f726167653a2055524920717565727920666f722060008201527f6e6f6e6578697374656e7420746f6b656e000000000000000000000000000000602082015250565b6000614b72603183613adf565b9150614b7d82614b16565b604082019050919050565b60006020820190508181036000830152614ba181614b65565b9050919050565b6000614bb48285614840565b9150614bc08284614840565b91508190509392505050565b7f4552433732313a206f70657261746f7220717565727920666f72206e6f6e657860008201527f697374656e7420746f6b656e0000000000000000000000000000000000000000602082015250565b6000614c28602c83613adf565b9150614c3382614bcc565b604082019050919050565b60006020820190508181036000830152614c5781614c1b565b9050919050565b7f4552433732313a207472616e73666572206f6620746f6b656e2074686174206960008201527f73206e6f74206f776e0000000000000000000000000000000000000000000000602082015250565b6000614cba602983613adf565b9150614cc582614c5e565b604082019050919050565b60006020820190508181036000830152614ce981614cad565b9050919050565b7f4552433732313a207472616e7366657220746f20746865207a65726f2061646460008201527f7265737300000000000000000000000000000000000000000000000000000000602082015250565b6000614d4c602483613adf565b9150614d5782614cf0565b604082019050919050565b60006020820190508181036000830152614d7b81614d3f565b9050919050565b6000614d8d82613b8f565b9150614d9883613b8f565b925082821015614dab57614daa614643565b5b828203905092915050565b7f4552433732313a207472616e7366657220746f206e6f6e20455243373231526560008201527f63656976657220696d706c656d656e7465720000000000000000000000000000602082015250565b6000614e12603283613adf565b9150614e1d82614db6565b604082019050919050565b60006020820190508181036000830152614e4181614e05565b9050919050565b7f4552433732314d657461646174613a2055524920717565727920666f72206e6f60008201527f6e6578697374656e7420746f6b656e0000000000000000000000000000000000602082015250565b6000614ea4602f83613adf565b9150614eaf82614e48565b604082019050919050565b60006020820190508181036000830152614ed381614e97565b9050919050565b600081519050919050565b600082825260208201905092915050565b6000614f0182614eda565b614f0b8185614ee5565b9350614f1b818560208601613af0565b614f2481613b23565b840191505092915050565b6000608082019050614f446000830187613c24565b614f516020830186613c24565b614f5e6040830185613cba565b8181036060830152614f708184614ef6565b905095945050505050565b600081519050614f8a81613a45565b92915050565b600060208284031215614fa657614fa5613a0f565b5b6000614fb484828501614f7b565b91505092915050565b7f4e487b7100000000000000000000000000000000000000000000000000000000600052601260045260246000fd5b6000614ff782613b8f565b915061500283613b8f565b92508261501257615011614fbd565b5b828204905092915050565b600061502882613b8f565b915061503383613b8f565b92508261504357615042614fbd565b5b828206905092915050565b7f4e487b7100000000000000000000000000000000000000000000000000000000600052603260045260246000fd5b7f4552433732313a206d696e7420746f20746865207a65726f2061646472657373600082015250565b60006150b3602083613adf565b91506150be8261507d565b602082019050919050565b600060208201905081810360008301526150e2816150a6565b9050919050565b7f4552433732313a20746f6b656e20616c7265616479206d696e74656400000000600082015250565b600061511f601c83613adf565b915061512a826150e9565b602082019050919050565b6000602082019050818103600083015261514e81615112565b905091905056fea264697066735822122079a384f44cdf715b76d97a2363a6096cc58d0661e9fdd1c99d1fb3603b64b1f764736f6c63430008090033",
  "immutableReferences": {},
  "source": "// SPDX-License-Identifier: MIT\r\npragma solidity ^0.8.0;\r\n\r\n// import ERC721 iterface\r\nimport \"@openzeppelin/contracts/token/ERC721/extensions/ERC721URIStorage.sol\";\r\n\r\n// NFTs smart contract inherits ERC721 interface\r\ncontract Auction is ERC721URIStorage{\r\n    // this contract's token collection name\r\n    string public collectionName;\r\n    // this contract's token symbol\r\n    string public collectionNameSymbol;\r\n    // total number of crypto boys minted\r\n    uint256 public NFTCounter;\r\n\r\n    struct NFT {\r\n        uint256 tokenID;\r\n        string tokenName;\r\n        address payable mintedBy;\r\n        address payable currentOwner;\r\n        address payable previousOwner;\r\n        uint256 price;\r\n        uint256 transNum;\r\n        bool onSale;\r\n    }\r\n\r\n    struct Auction {\r\n        uint256 minBid;\r\n        address payable highestBidder;\r\n        uint256 highestBid;\r\n        uint endTime;\r\n        bool ended;\r\n        bool claimed;\r\n    }\r\n\r\n\r\n    mapping(uint256 => NFT) public allNFTs;\r\n    mapping(uint256 => Auction) public AuctionsOfNFT;\r\n    mapping(uint256 => mapping(address => uint256)) public fundsByBidder; //map tokenID to fundsByBidder\r\n    mapping(address => uint256[]) public attendAuctions;\r\n    mapping(address => uint) public attendAuctionsNum;\r\n\r\n    // check if token name exists\r\n    mapping(string => bool) public tokenNameExists;\r\n\r\n     // initialize contract while deployment with contract's collection name and token\r\n    constructor() ERC721(\"NFT Collection\", \"NFT\") {\r\n        collectionName = name();\r\n        collectionNameSymbol = symbol();\r\n    }\r\n\r\n    modifier notZeroAddress() {\r\n        require(\r\n            msg.sender != address(0),\r\n            \"The fucntion caller is zero address account.\"\r\n        );\r\n        _;\r\n    }\r\n    modifier isOwner(uint256 _tokenID) {\r\n        require(\r\n            msg.sender == ownerOf(_tokenID),\r\n            \"Only owner can call this function.\"\r\n        );\r\n        _;\r\n    }\r\n\r\n    modifier notOwner(uint256 _tokenID) {\r\n        require(\r\n            msg.sender != ownerOf(_tokenID),\r\n            \"Owner cannot call this function.\"\r\n        );\r\n        _;\r\n    }\r\n\r\n    modifier notEnded(uint256 _tokenID) {\r\n        Auction memory auction = AuctionsOfNFT[_tokenID];\r\n        require(\r\n            block.timestamp <= auction.endTime,\r\n            \"Auction already ended.\"\r\n        );\r\n        _;\r\n    }\r\n\r\n    modifier tokenExist(uint256 _tokenID) {\r\n        require(\r\n            _exists(_tokenID),\r\n            \"Token ID does not exist.\"\r\n        );\r\n        _;\r\n    }\r\n    //   block\r\n    function getTime() public view returns (uint) {\r\n        return block.timestamp;\r\n    }\r\n\r\n\r\n    // mint a new NFT\r\n    function mintNFT(string memory _name, uint256 _price) external notZeroAddress {\r\n        // increment counter\r\n        NFTCounter++;\r\n        // check if a token exists with the above token id =>   incremented counter\r\n        require(!_exists(NFTCounter));\r\n        // check if the token name already exists or not\r\n        require(!tokenNameExists[_name]);\r\n    \r\n\r\n        ///721\r\n        // mint the token\r\n        _safeMint(msg.sender, NFTCounter);\r\n        // make token name passed as exists\r\n        tokenNameExists[_name] = true;\r\n    \r\n        // creat a new NFT (struct) and pass in new values\r\n        NFT memory newNFT = NFT(\r\n            NFTCounter,\r\n            _name,\r\n            payable(msg.sender),\r\n            payable(msg.sender),//payable msg.sender\r\n            payable(address(0)),\r\n            _price,\r\n            0,\r\n            false\r\n        );\r\n        // add the token id and it's NFT to all NFTs mapping\r\n        allNFTs[NFTCounter] = newNFT;\r\n    }\r\n\r\n\r\n    // get owner of the token\r\n    function getTokenOwner(uint256 _tokenID) public view returns  (address) {\r\n        address _tokenOwner = ownerOf(_tokenID);//721\r\n        return _tokenOwner;\r\n    }\r\n\r\n    //\r\n    // get total number of tokens owned by an address\r\n    function getTotalNumberOfTokensOwnedByAnAddress(address _owner) public view returns(uint256) {\r\n        uint256 totalNumberOfTokensOwned = balanceOf(_owner);\r\n        return totalNumberOfTokensOwned;\r\n    }\r\n\r\n\r\n    function beginAuction(uint256 _tokenID, uint256 _minBid, uint _duration) tokenExist(_tokenID) isOwner(_tokenID) public returns (bool success) {\r\n        uint _endTime = block.timestamp+_duration;\r\n        NFT memory nft = allNFTs[_tokenID];\r\n        nft.onSale = true;\r\n        Auction memory newAuction = Auction(\r\n            _minBid,\r\n            payable(msg.sender),\r\n            _minBid,\r\n            _endTime,\r\n            false,\r\n            false\r\n        );\r\n\r\n        allNFTs[_tokenID] = nft;\r\n        AuctionsOfNFT[_tokenID] = newAuction;\r\n        return true;\r\n    }\r\n\r\n    function increaseBid(uint256 _tokenID, uint256 newBid) tokenExist(_tokenID) notOwner(_tokenID) notEnded(_tokenID) public returns (bool success) {\r\n        Auction memory auction = AuctionsOfNFT[_tokenID];\r\n        if (newBid <= auction.highestBid) revert();\r\n\r\n        NFT memory nft = allNFTs[_tokenID];\r\n        nft.price = newBid;\r\n        allNFTs[_tokenID] = nft;\r\n        \r\n        attendAuctionsNum[msg.sender] += 1;\r\n        attendAuctions[msg.sender].push(_tokenID);\r\n        fundsByBidder[_tokenID][msg.sender] = newBid;\r\n        auction.highestBidder = payable(msg.sender);\r\n        auction.highestBid = newBid;\r\n        AuctionsOfNFT[_tokenID] = auction;\r\n        return true;\r\n    }\r\n\r\n    function endAuction(uint256 _tokenID) tokenExist(_tokenID) public returns (bool success) {\r\n        Auction memory auction = AuctionsOfNFT[_tokenID];\r\n        require(block.timestamp >= auction.endTime, \"Auction not yet ended.\");\r\n\r\n        auction.ended = true;\r\n\r\n        AuctionsOfNFT[_tokenID] = auction;\r\n        return true;\r\n    }\r\n\r\n    function claimNFT(uint256 _tokenID) public payable tokenExist(_tokenID) notZeroAddress returns (bool success) {\r\n        Auction memory auction = AuctionsOfNFT[_tokenID];\r\n        // require(auction.ended);\r\n        require(auction.ended, \"Auction not yet ended.\");\r\n        require(!auction.claimed);\r\n        require(msg.sender == auction.highestBidder);\r\n        // get the token's owner\r\n        address tokenOwner = ownerOf(_tokenID);\r\n        // token's owner should not be an zero address account\r\n        require(tokenOwner != address(0));\r\n\r\n        NFT memory nft = allNFTs[_tokenID];\r\n        _transfer(tokenOwner, msg.sender, _tokenID);//transfer \r\n        // // get owner of the token\r\n        // address payable sendTo = nft.currentOwner;\r\n        // send token's worth of ethers to the owner\r\n        payable(tokenOwner).transfer(msg.value);\r\n        nft.previousOwner = nft.currentOwner;\r\n        nft.currentOwner = payable(msg.sender);\r\n        nft.price = auction.highestBid;\r\n        nft.transNum += 1;\r\n        nft.onSale = false;\r\n        allNFTs[_tokenID] = nft;\r\n        return true;\r\n    }\r\n\r\n\r\n}",
  "sourcePath": "D:\\grade 3\\bc\\new-react-box\\new-react-box\\contracts\\Auction.sol",
  "compiler": {
    "name": "solc",
    "version": "0.8.9+commit.e5eed63a.Emscripten.clang"
  },
  "schemaVersion": "3.4.3",
  "updatedAt": "2021-11-06T06:49:06.951Z",
  "devdoc": {
    "kind": "dev",
    "methods": {
      "approve(address,uint256)": {
        "details": "See {IERC721-approve}."
      },
      "balanceOf(address)": {
        "details": "See {IERC721-balanceOf}."
      },
      "getApproved(uint256)": {
        "details": "See {IERC721-getApproved}."
      },
      "isApprovedForAll(address,address)": {
        "details": "See {IERC721-isApprovedForAll}."
      },
      "name()": {
        "details": "See {IERC721Metadata-name}."
      },
      "ownerOf(uint256)": {
        "details": "See {IERC721-ownerOf}."
      },
      "safeTransferFrom(address,address,uint256)": {
        "details": "See {IERC721-safeTransferFrom}."
      },
      "safeTransferFrom(address,address,uint256,bytes)": {
        "details": "See {IERC721-safeTransferFrom}."
      },
      "setApprovalForAll(address,bool)": {
        "details": "See {IERC721-setApprovalForAll}."
      },
      "supportsInterface(bytes4)": {
        "details": "See {IERC165-supportsInterface}."
      },
      "symbol()": {
        "details": "See {IERC721Metadata-symbol}."
      },
      "tokenURI(uint256)": {
        "details": "See {IERC721Metadata-tokenURI}."
      },
      "transferFrom(address,address,uint256)": {
        "details": "See {IERC721-transferFrom}."
      }
    },
    "version": 1
  },
  "userdoc": {
    "kind": "user",
    "methods": {},
    "version": 1
  }
}